{
  "contractName": "ProductVerification",
  "abi": [
    {
      "inputs": [],
      "stateMutability": "nonpayable",
      "type": "constructor"
    },
    {
      "anonymous": false,
      "inputs": [
        {
          "indexed": false,
          "internalType": "address",
          "name": "manufacturer",
          "type": "address"
        }
      ],
      "name": "ManufacturerAuthorized",
      "type": "event"
    },
    {
      "anonymous": false,
      "inputs": [
        {
          "indexed": false,
          "internalType": "string",
          "name": "productId",
          "type": "string"
        },
        {
          "indexed": false,
          "internalType": "bytes32",
          "name": "finalHash",
          "type": "bytes32"
        },
        {
          "indexed": false,
          "internalType": "address",
          "name": "manufacturer",
          "type": "address"
        }
      ],
      "name": "ProductRegistered",
      "type": "event"
    },
    {
      "anonymous": false,
      "inputs": [
        {
          "indexed": false,
          "internalType": "string",
          "name": "productId",
          "type": "string"
        },
        {
          "indexed": false,
          "internalType": "bool",
          "name": "isGenuine",
          "type": "bool"
        }
      ],
      "name": "ProductVerified",
      "type": "event"
    },
    {
      "inputs": [
        {
          "internalType": "address",
          "name": "",
          "type": "address"
        }
      ],
      "name": "authorizedManufacturers",
      "outputs": [
        {
          "internalType": "bool",
          "name": "",
          "type": "bool"
        }
      ],
      "stateMutability": "view",
      "type": "function",
      "constant": true
    },
    {
      "inputs": [],
      "name": "owner",
      "outputs": [
        {
          "internalType": "address",
          "name": "",
          "type": "address"
        }
      ],
      "stateMutability": "view",
      "type": "function",
      "constant": true
    },
    {
      "inputs": [
        {
          "internalType": "string",
          "name": "",
          "type": "string"
        }
      ],
      "name": "products",
      "outputs": [
        {
          "internalType": "string",
          "name": "productId",
          "type": "string"
        },
        {
          "internalType": "bytes32",
          "name": "finalHash",
          "type": "bytes32"
        },
        {
          "internalType": "address",
          "name": "manufacturer",
          "type": "address"
        },
        {
          "internalType": "uint256",
          "name": "timestamp",
          "type": "uint256"
        }
      ],
      "stateMutability": "view",
      "type": "function",
      "constant": true
    },
    {
      "inputs": [
        {
          "internalType": "address",
          "name": "_manufacturer",
          "type": "address"
        }
      ],
      "name": "authorizeManufacturer",
      "outputs": [],
      "stateMutability": "nonpayable",
      "type": "function"
    },
    {
      "inputs": [
        {
          "internalType": "string",
          "name": "_productId",
          "type": "string"
        },
        {
          "internalType": "bytes32",
          "name": "_finalHash",
          "type": "bytes32"
        }
      ],
      "name": "registerProduct",
      "outputs": [],
      "stateMutability": "nonpayable",
      "type": "function"
    },
    {
      "inputs": [
        {
          "internalType": "string",
          "name": "_productId",
          "type": "string"
        },
        {
          "internalType": "bytes32",
          "name": "_computedHash",
          "type": "bytes32"
        }
      ],
      "name": "verifyProduct",
      "outputs": [
        {
          "internalType": "bool",
          "name": "",
          "type": "bool"
        }
      ],
      "stateMutability": "view",
      "type": "function",
      "constant": true
    },
    {
      "inputs": [
        {
          "internalType": "string",
          "name": "_productId",
          "type": "string"
        }
      ],
      "name": "getProduct",
      "outputs": [
        {
          "internalType": "string",
          "name": "productId",
          "type": "string"
        },
        {
          "internalType": "bytes32",
          "name": "finalHash",
          "type": "bytes32"
        },
        {
          "internalType": "address",
          "name": "manufacturer",
          "type": "address"
        },
        {
          "internalType": "uint256",
          "name": "timestamp",
          "type": "uint256"
        }
      ],
      "stateMutability": "view",
      "type": "function",
      "constant": true
    },
    {
      "inputs": [
        {
          "internalType": "string[]",
          "name": "components",
          "type": "string[]"
        }
      ],
      "name": "computeComponentHash",
      "outputs": [
        {
          "internalType": "bytes32",
          "name": "",
          "type": "bytes32"
        }
      ],
      "stateMutability": "pure",
      "type": "function",
      "constant": true
    }
  ],
  "bytecode": "0x608060405234801561001057600080fd5b5033600260006101000a81548173ffffffffffffffffffffffffffffffffffffffff021916908373ffffffffffffffffffffffffffffffffffffffff16021790555060018060003373ffffffffffffffffffffffffffffffffffffffff1673ffffffffffffffffffffffffffffffffffffffff16815260200190815260200160002060006101000a81548160ff021916908315150217905550611428806100b86000396000f3fe608060405234801561001057600080fd5b50600436106100a5576000357c0100000000000000000000000000000000000000000000000000000000900480635e841250116100785780635e8412501461015957806368111cce146101895780638da5cb5b146101bc578063ed0abd15146101da576100a5565b80630186a423146100aa578063089e1b39146100dd5780631a2c5f9e146100f957806324b0424514610129575b600080fd5b6100c460048036038101906100bf9190610c92565b6101f6565b6040516100d4949392919061106d565b60405180910390f35b6100f760048036038101906100f29190610c28565b6102e4565b005b610113600480360381019061010e9190610cd3565b610405565b6040516101209190610ff9565b60405180910390f35b610143600480360381019061013e9190610c28565b61058c565b6040516101509190610ff9565b60405180910390f35b610173600480360381019061016e9190610c51565b6105ac565b6040516101809190611014565b60405180910390f35b6101a3600480360381019061019e9190610c92565b61066a565b6040516101b3949392919061106d565b60405180910390f35b6101c4610804565b6040516101d19190610fde565b60405180910390f35b6101f460048036038101906101ef9190610cd3565b61082a565b005b60008180516020810182018051848252602083016020850120818352809550505050505060009150905080600001805461022f906112a1565b80601f016020809104026020016040519081016040528092919081815260200182805461025b906112a1565b80156102a85780601f1061027d576101008083540402835291602001916102a8565b820191906000526020600020905b81548152906001019060200180831161028b57829003601f168201915b5050505050908060010154908060020160009054906101000a900473ffffffffffffffffffffffffffffffffffffffff16908060030154905084565b600260009054906101000a900473ffffffffffffffffffffffffffffffffffffffff1673ffffffffffffffffffffffffffffffffffffffff163373ffffffffffffffffffffffffffffffffffffffff1614610374576040517f08c379a000000000000000000000000000000000000000000000000000000000815260040161036b906110b9565b60405180910390fd5b60018060008373ffffffffffffffffffffffffffffffffffffffff1673ffffffffffffffffffffffffffffffffffffffff16815260200190815260200160002060006101000a81548160ff0219169083151502179055507f06254beaf84c859845ea388376dff86c215438fa7cb62de9f3b40aae51571ec2816040516103fa9190610fde565b60405180910390a150565b6000806000846040516104189190610fb2565b9081526020016040518091039020604051806080016040529081600082018054610441906112a1565b80601f016020809104026020016040519081016040528092919081815260200182805461046d906112a1565b80156104ba5780601f1061048f576101008083540402835291602001916104ba565b820191906000526020600020905b81548152906001019060200180831161049d57829003601f168201915b50505050508152602001600182015481526020016002820160009054906101000a900473ffffffffffffffffffffffffffffffffffffffff1673ffffffffffffffffffffffffffffffffffffffff1673ffffffffffffffffffffffffffffffffffffffff16815260200160038201548152505090506000816060015111610576576040517f08c379a000000000000000000000000000000000000000000000000000000000815260040161056d90611119565b60405180910390fd5b6000838260200151149050809250505092915050565b60016020528060005260406000206000915054906101000a900460ff1681565b6000806040516020016105be90610fc9565b60405160208183030381529060405280519060200120905060005b8351811015610660578184828151811061061c577f4e487b7100000000000000000000000000000000000000000000000000000000600052603260045260246000fd5b6020026020010151604051602001610635929190610f8a565b6040516020818303038152906040528051906020012091508080610658906112d3565b9150506105d9565b5080915050919050565b60606000806000806000866040516106829190610fb2565b90815260200160405180910390206040518060800160405290816000820180546106ab906112a1565b80601f01602080910402602001604051908101604052809291908181526020018280546106d7906112a1565b80156107245780601f106106f957610100808354040283529160200191610724565b820191906000526020600020905b81548152906001019060200180831161070757829003601f168201915b50505050508152602001600182015481526020016002820160009054906101000a900473ffffffffffffffffffffffffffffffffffffffff1673ffffffffffffffffffffffffffffffffffffffff1673ffffffffffffffffffffffffffffffffffffffff168152602001600382015481525050905060008160600151116107e0576040517f08c379a00000000000000000000000000000000000000000000000000000000081526004016107d790611119565b60405180910390fd5b80600001518160200151826040015183606001519450945094509450509193509193565b600260009054906101000a900473ffffffffffffffffffffffffffffffffffffffff1681565b600160003373ffffffffffffffffffffffffffffffffffffffff1673ffffffffffffffffffffffffffffffffffffffff16815260200190815260200160002060009054906101000a900460ff166108b6576040517f08c379a00000000000000000000000000000000000000000000000000000000081526004016108ad906110f9565b60405180910390fd5b60008251116108fa576040517f08c379a00000000000000000000000000000000000000000000000000000000081526004016108f1906110d9565b60405180910390fd5b6000808360405161090b9190610fb2565b9081526020016040518091039020600301541461095d576040517f08c379a000000000000000000000000000000000000000000000000000000000815260040161095490611139565b60405180910390fd5b60405180608001604052808381526020018281526020013373ffffffffffffffffffffffffffffffffffffffff168152602001428152506000836040516109a49190610fb2565b908152602001604051809103902060008201518160000190805190602001906109ce929190610a6c565b506020820151816001015560408201518160020160006101000a81548173ffffffffffffffffffffffffffffffffffffffff021916908373ffffffffffffffffffffffffffffffffffffffff160217905550606082015181600301559050507f1eebc1f581db7bcf8ac237d5d6f1e1befe0c10e60ef66231c1f479e37c1e254e828233604051610a609392919061102f565b60405180910390a15050565b828054610a78906112a1565b90600052602060002090601f016020900481019282610a9a5760008555610ae1565b82601f10610ab357805160ff1916838001178555610ae1565b82800160010185558215610ae1579182015b82811115610ae0578251825591602001919060010190610ac5565b5b509050610aee9190610af2565b5090565b5b80821115610b0b576000816000905550600101610af3565b5090565b6000610b22610b1d8461118a565b611159565b9050808382526020820190508260005b85811015610b625781358501610b488882610bfe565b845260208401935060208301925050600181019050610b32565b5050509392505050565b6000610b7f610b7a846111b6565b611159565b905082815260208101848484011115610b9757600080fd5b610ba284828561125f565b509392505050565b600081359050610bb9816113c4565b92915050565b600082601f830112610bd057600080fd5b8135610be0848260208601610b0f565b91505092915050565b600081359050610bf8816113db565b92915050565b600082601f830112610c0f57600080fd5b8135610c1f848260208601610b6c565b91505092915050565b600060208284031215610c3a57600080fd5b6000610c4884828501610baa565b91505092915050565b600060208284031215610c6357600080fd5b600082013567ffffffffffffffff811115610c7d57600080fd5b610c8984828501610bbf565b91505092915050565b600060208284031215610ca457600080fd5b600082013567ffffffffffffffff811115610cbe57600080fd5b610cca84828501610bfe565b91505092915050565b60008060408385031215610ce657600080fd5b600083013567ffffffffffffffff811115610d0057600080fd5b610d0c85828601610bfe565b9250506020610d1d85828601610be9565b9150509250929050565b610d308161120d565b82525050565b610d3f8161121f565b82525050565b610d4e8161122b565b82525050565b610d65610d608261122b565b61131c565b82525050565b6000610d76826111e6565b610d8081856111f1565b9350610d9081856020860161126e565b610d99816113b3565b840191505092915050565b6000610daf826111e6565b610db98185611202565b9350610dc981856020860161126e565b80840191505092915050565b6000610de26021836111f1565b91507f4f6e6c79206f776e65722063616e2063616c6c20746869732066756e6374696f60008301527f6e000000000000000000000000000000000000000000000000000000000000006020830152604082019050919050565b6000610e48601a836111f1565b91507f50726f647563742049442063616e6e6f7420626520656d7074790000000000006000830152602082019050919050565b6000610e886033836111f1565b91507f4f6e6c7920617574686f72697a6564206d616e7566616374757265727320636160008301527f6e2072656769737465722070726f6475637473000000000000000000000000006020830152604082019050919050565b6000610eee6011836111f1565b91507f50726f64756374206e6f7420666f756e640000000000000000000000000000006000830152602082019050919050565b6000610f2e600083611202565b9150600082019050919050565b6000610f48601a836111f1565b91507f50726f6475637420616c726561647920726567697374657265640000000000006000830152602082019050919050565b610f8481611255565b82525050565b6000610f968285610d54565b602082019150610fa68284610da4565b91508190509392505050565b6000610fbe8284610da4565b915081905092915050565b6000610fd482610f21565b9150819050919050565b6000602082019050610ff36000830184610d27565b92915050565b600060208201905061100e6000830184610d36565b92915050565b60006020820190506110296000830184610d45565b92915050565b600060608201905081810360008301526110498186610d6b565b90506110586020830185610d45565b6110656040830184610d27565b949350505050565b600060808201905081810360008301526110878187610d6b565b90506110966020830186610d45565b6110a36040830185610d27565b6110b06060830184610f7b565b95945050505050565b600060208201905081810360008301526110d281610dd5565b9050919050565b600060208201905081810360008301526110f281610e3b565b9050919050565b6000602082019050818103600083015261111281610e7b565b9050919050565b6000602082019050818103600083015261113281610ee1565b9050919050565b6000602082019050818103600083015261115281610f3b565b9050919050565b6000604051905081810181811067ffffffffffffffff821117156111805761117f611384565b5b8060405250919050565b600067ffffffffffffffff8211156111a5576111a4611384565b5b602082029050602081019050919050565b600067ffffffffffffffff8211156111d1576111d0611384565b5b601f19601f8301169050602081019050919050565b600081519050919050565b600082825260208201905092915050565b600081905092915050565b600061121882611235565b9050919050565b60008115159050919050565b6000819050919050565b600073ffffffffffffffffffffffffffffffffffffffff82169050919050565b6000819050919050565b82818337600083830152505050565b60005b8381101561128c578082015181840152602081019050611271565b8381111561129b576000848401525b50505050565b600060028204905060018216806112b957607f821691505b602082108114156112cd576112cc611355565b5b50919050565b60006112de82611255565b91507fffffffffffffffffffffffffffffffffffffffffffffffffffffffffffffffff82141561131157611310611326565b5b600182019050919050565b6000819050919050565b7f4e487b7100000000000000000000000000000000000000000000000000000000600052601160045260246000fd5b7f4e487b7100000000000000000000000000000000000000000000000000000000600052602260045260246000fd5b7f4e487b7100000000000000000000000000000000000000000000000000000000600052604160045260246000fd5b6000601f19601f8301169050919050565b6113cd8161120d565b81146113d857600080fd5b50565b6113e48161122b565b81146113ef57600080fd5b5056fea26469706673582212205ae973a25205fb83c4bcbbfdc62342ff22de29ca67ba3ec6437252ea832f620364736f6c63430008000033",
  "immutableReferences": {},
  "source": "// SPDX-License-Identifier: MIT\r\npragma solidity ^0.8.0;\r\n\r\ncontract ProductVerification {\r\n    struct Product {\r\n        string productId;\r\n        bytes32 finalHash;\r\n        address manufacturer;\r\n        uint256 timestamp;\r\n    }\r\n    \r\n    mapping(string => Product) public products;\r\n    mapping(address => bool) public authorizedManufacturers;\r\n    address public owner;\r\n    \r\n    event ProductRegistered(string productId, bytes32 finalHash, address manufacturer);\r\n    event ProductVerified(string productId, bool isGenuine);\r\n    event ManufacturerAuthorized(address manufacturer);\r\n    \r\n    modifier onlyOwner() {\r\n        require(msg.sender == owner, \"Only owner can call this function\");\r\n        _;\r\n    }\r\n    \r\n    modifier onlyAuthorized() {\r\n        require(authorizedManufacturers[msg.sender], \"Only authorized manufacturers can register products\");\r\n        _;\r\n    }\r\n    \r\n    constructor() {\r\n        owner = msg.sender;\r\n        authorizedManufacturers[msg.sender] = true;\r\n    }\r\n    \r\n    function authorizeManufacturer(address _manufacturer) external onlyOwner {\r\n        authorizedManufacturers[_manufacturer] = true;\r\n        emit ManufacturerAuthorized(_manufacturer);\r\n    }\r\n    \r\n    function registerProduct(\r\n        string memory _productId, \r\n        bytes32 _finalHash\r\n    ) external onlyAuthorized {\r\n        require(bytes(_productId).length > 0, \"Product ID cannot be empty\");\r\n        require(products[_productId].timestamp == 0, \"Product already registered\");\r\n        \r\n        products[_productId] = Product({\r\n            productId: _productId,\r\n            finalHash: _finalHash,\r\n            manufacturer: msg.sender,\r\n            timestamp: block.timestamp\r\n        });\r\n        \r\n        emit ProductRegistered(_productId, _finalHash, msg.sender);\r\n    }\r\n    \r\n    function verifyProduct(\r\n        string memory _productId, \r\n        bytes32 _computedHash\r\n    ) external view returns (bool) {\r\n        Product memory product = products[_productId];\r\n        require(product.timestamp > 0, \"Product not found\");\r\n        \r\n        bool isGenuine = (product.finalHash == _computedHash);\r\n        return isGenuine;\r\n    }\r\n    \r\n    function getProduct(string memory _productId) external view returns (\r\n        string memory productId,\r\n        bytes32 finalHash,\r\n        address manufacturer,\r\n        uint256 timestamp\r\n    ) {\r\n        Product memory product = products[_productId];\r\n        require(product.timestamp > 0, \"Product not found\");\r\n        \r\n        return (\r\n            product.productId,\r\n            product.finalHash,\r\n            product.manufacturer,\r\n            product.timestamp\r\n        );\r\n    }\r\n    \r\n    function computeComponentHash(string[] memory components) external pure returns (bytes32) {\r\n        bytes32 combinedHash = keccak256(abi.encodePacked(\"\"));\r\n        \r\n        for (uint i = 0; i < components.length; i++) {\r\n            combinedHash = keccak256(abi.encodePacked(combinedHash, components[i]));\r\n        }\r\n        \r\n        return combinedHash;\r\n    }\r\n}",
  "sourcePath": "C:\\Users\\RAKSHITHA\\OneDrive\\Desktop\\FP\\backend\\contracts\\ProductVerification.sol",
  "compiler": {
    "name": "solc",
    "version": "0.8.0+commit.c7dfd78e.Emscripten.clang"
  },
  "schemaVersion": "3.4.16",
  "updatedAt": "2025-11-21T04:39:07.711Z",
  "networkType": "ethereum",
  "devdoc": {
    "kind": "dev",
    "methods": {},
    "version": 1
  },
  "userdoc": {
    "kind": "user",
    "methods": {},
    "version": 1
  }
}